:1000000008C1000037C1000035C1000033C1000045
:1000100031C100002FC100002DC100002BC1000024
:1000200029C1000027C1000025C1000023C1000034
:1000300021C100001FC100001DC100001BC1000044
:1000400019C1000017C1000015C1000013C1000054
:1000500011C100000FC100000DC10000C6C40000A6
:1000600009C10000DAC700000C94430803C1000076
:1000700001C10000FFC00000FDC00000FBC0000087
:10008000F9C00000F7C00000F5C00000F3C0000098
:10009000F1C00000EFC00000EDC00000EBC00000A8
:1000A000E9C00000E7C00000E5C00000E3C00000B8
:1000B000E1C00000DFC00000DDC00000DBC00000C8
:1000C000D9C00000D7C00000D5C00000D3C00000D8
:1000D000D1C00000CFC00000CDC00000CBC00000E8
:1000E000C9C00000F505F805E705EB05F1052F0689
:1000F000FC05000606060A060E06140618061C066F
:100100002F06220626062A0600000A0B02090C0DFD
:100110000E080703040100000000000000000000BA
:1001200000000000000000000000000000000000CF
:10013000000000001211100000000000000000008C
:1001400000000000000000000000000000000102AC
:1001500010202008081020401020408002010201D9
:100160000804020101020408102040808040201091
:1001700008040201800402018040201008040201EA
:100180000804020101020408102040800102040852
:10019000102040800505050507050808080802022B
:1001A00002020A0A08080404040401010101010111
:1001B00001010303030303030303040707070C0CF4
:1001C0000C0C0C0C0C0C02020202060606060606BB
:1001D00006060B0B0B0B0B0B0B0B00002200250074
:1001E00028002B002E003100340002010000050120
:1001F00008010B0100002100240027002A002D0027
:100200003000330001010000040107010A010B0462
:10021000750811241FBECFEFD1E2DEBFCDBF00E0D5
:100220000CBF12E0A0E0B2E0E4E2F8E100E00BBFB6
:1002300002C007900D92A634B107D9F723E0A6E4D7
:10024000B2E001C01D92A839B207E1F712E0C2E1A5
:10025000D2E000E006C022970109FE010BBF0E9418
:10026000FD0BCE30D10780E00807A9F70E94090AEC
:100270000C94100CC5CE8EBD00000DB407FEFDCF52
:100280008EB508958F929F92AF92BF92CF92DF92D8
:10029000EF92FF92CF93DF93FB01EC0149015A01EA
:1002A0002115310541055105C9F09B01AC01C12C57
:1002B000D12C76018FEFC81AD80AE80AF80AC814B8
:1002C000D904EA04FB0439F0BF01CE010E94950B6A
:1002D0009B01AC01EFCFB901CA0104C061E070E03D
:1002E00080E090E0DF91CF91FF90EF90DF90CF9092
:1002F000BF90AF909F908F9008952F923F924F9212
:100300005F926F927F928F929F92AF92BF92CF92A5
:10031000DF92EF92FF920F931F93CF93DF93CDB7AE
:10032000DEB728970FB6F894DEBF0FBECDBF698346
:100330007A838B839C838901812C912C5401839433
:10034000042E04C0880C991CAA1CBB1C0A94D2F76A
:100350001A01C12CD12C7601CA01A0E0B0E08D8336
:100360009E83AF83B8870215130518F149805A8020
:100370006B807C80482059206A207B202D813E8123
:100380004F81588562E070E080E090E07BDF9B0168
:10039000AC01C301B2010E94CB0BC20ED31EE41EFE
:1003A000F51E880C991CAA1CBB1C9FEF291A390A40
:1003B000DACF3092B5022092B402C701B601289676
:1003C0000FB6F894DEBF0FBECDBFDF91CF911F9166
:1003D0000F91FF90EF90DF90CF90BF90AF909F90E4
:1003E0008F907F906F905F904F903F902F900895E7
:1003F000CF939C01C62F66E070E00E94B80B9093EB
:10040000EF028093EE02263031052CF0209122027B
:100410003091230204C020912002309121023093B8
:10042000ED022093EC0260E08091EC0252D48091C6
:10043000EE0221DF8C2F1FDF61E08091EC02CF9173
:1004400048C44091980250919902E0E8F2E0A0E09F
:1004500020E030E02417350749F06191719186174B
:10046000970709F4A1E02F5F3F4FF4CFA093F0026C
:10047000A1110DC0F901EE0FFF1FE058FD4F918350
:1004800080832F5F3F4F3093990220939802089505
:10049000CF93DF93A0919802B091990260E070E051
:1004A00020E030E0A9012A173B0798F5FB01E0584E
:1004B000FD4F0190F081E02D2F5F3F4F6E5F7F4F2A
:1004C000E817F90779F75093B5024093B402FA019F
:1004D000EE0FFF1FE058FD4F11821082CA0120E08D
:1004E00030E011978A179B0758F4EF01C20FD31F12
:1004F0004A815B81598348832E5F3F4F0196F2CF3B
:100500009093B3028093B202B0939902A0939802A1
:1005100004C03093B5022093B402DF91CF910895C7
:10052000CF93DF93C0E0D0E0CC30D10541F0CE01D5
:10053000AFDF60E070E0CE015BDF2196F5CFDF91A9
:10054000CF910895CF93DF931092B5021092B40229
:10055000C091B402D091B502CC30D105B0F48FD2A5
:10056000FE01EE0FFF1FEE0FFF1FE65BFD4F6083E6
:100570007183828393838091B4029091B502019636
:100580009093B5028093B402E3CF10927A02109256
:100590007B0210927C0210927D0220E030E080E02D
:1005A00090E08C30910548F4F901EA54FD4F118236
:1005B00010822E5F3F4F0196F4CF9093B502809347
:1005C000B402DF91CF9108950F931F93CF93DF93E0
:1005D0001092B5021092B402E091B402F091B5020B
:1005E0008091980290919902E817F90708F06AC083
:1005F000EE0FFF1FE058FD4F00811181000F111F0A
:10060000000F111F065B1D4F3AD2E091B402F0912A
:10061000B502EE0FFF1FE058FD4FC081D181F801F8
:100620000081118122813381601B710B820B930B3E
:10063000FE01EE0FFF1FE253FD4F0081118120E00C
:1006400030E0061717072807390790F518D2CC0FA6
:10065000DD1FCC0FDD1FC65BDD4F688379838A8386
:100660009B83E091B402F091B502EE0FFF1FE058BA
:10067000FD4F0190F081E02DEE0FFF1FE85FFD4F71
:1006800061E0808126D38CE291E005D2E091B40252
:10069000F091B502EE0FFF1FE058FD4F0190F08181
:1006A000E02DEE0FFF1FE85FFD4F60E0808111D36A
:1006B0008091B4029091B50201969093B502809317
:1006C000B4028ACFDF91CF911F910F9108950F93BC
:1006D0001F93D5D100914602109147022091480204
:1006E00030914902601B710B820B930B00917E02CB
:1006F00010917F0220E030E006171707280739071E
:1007000098F4BDD1609346027093470280934802EB
:100710009093490287E32CD24AE050E0BC018BEF72
:1007200092E01F910F910AC61F910F910895CF93E8
:10073000DF9326E040E05BE460E070E08BEF92E066
:100740000CD444E050E060E070E08BEF92E038D6EB
:100750001AD160E087E384D21092B5021092B402FD
:10076000E091B402F091B502EC30F105FCF4EE0F2B
:10077000FF1FE85FFD4F61E0808172D2E091B4021B
:10078000F091B502E230F1053CF4EE0FFF1FE05EA0
:10079000FD4F61E0808164D28091B4029091B502F6
:1007A00001969093B5028093B402DACF20E030E056
:1007B00080E090E04BE250E0FC01E253FD4F5183BA
:1007C00040832F5F3F4F02962C303105ACF31092DF
:1007D000B5021092B402C091B402D091B502CC30EF
:1007E000D105B0F44CD1FE01EE0FFF1FEE0FFF1F3D
:1007F000E65BFD4F60837183828393838091B402B3
:100800009091B50201969093B5028093B402E3CF24
:10081000DF91CF910895CF93DF936091060270919D
:10082000070288EE93E090D770937F0260937E0278
:10083000CAE4D2E024D1699379938993999382E0B1
:10084000CA37D807B9F71BD16093460270934702A5
:100850008093480290934902DF91CF910895CF92FF
:10086000DF92EF92FF921F93CF93DF93C8EED3E016
:100870008BEF92E063D2892B09F47AC042E050E01A
:1008800066EE72E08BEF92E0A1D56091E60270E037
:1008900080E090E05BD66B017C016091E70270E044
:1008A00080E090E053D620E030E040E853E4DAD630
:1008B0009B01AC01C701B601B7D51AD66093E80217
:1008C0007093E9028093EA029093EB0221E030E01A
:1008D00040E050E012DD162F6091E8027091E902CD
:1008E0008091EA029091EB0225E030E042E050E096
:1008F00004DDF62E6091E8027091E9028091EA022F
:100900009091EB022DE030E046E050E0F6DC113053
:10091000A9F040F01230F9F0133009F0A9CF12DE3F
:10092000FFDDA6CF8F2D90E070E0DC01AA0FBB1F8A
:10093000A656BD4F6D937C935BDD9ACF662339F04D
:10094000613009F095CF8F2D90E0A2DD91CF8F2DF2
:1009500090E077DD8DCFEF2DF0E0EE0FFF1FE2533B
:10096000FD4F70E0CE0104D777277183608380CF7D
:10097000DF91CF911F91FF90EF90DF90CF9008957E
:1009800023DEA5DE6CCFCF93CFB7F8948091F10230
:10099000811123C0E9ECF1E08491E3E8F1E0949166
:1009A000E82FF0E0EE0FFF1FEC50FE4FA591B49141
:1009B0008C91892319F461E085E38BD161E085E3B3
:1009C0004FD18CB580618CBD8CB580648CBD61E0ED
:1009D00084E346D161E083E343D18091F1028F5FEC
:1009E0008093F102CFBFCF9108951F920F920FB65F
:1009F0000F9211242F933F938F939F93AF93BF93A5
:100A00008091F3029091F402A091F502B091F60268
:100A10003091F20223E0230F2D3720F40196A11D1F
:100A2000B11D05C026E8230F0296A11DB11D20931C
:100A3000F2028093F3029093F402A093F502B09334
:100A4000F6028091F7029091F802A091F902B0911C
:100A5000FA020196A11DB11D8093F7029093F8024E
:100A6000A093F902B093FA02BF91AF919F918F9139
:100A70003F912F910F900FBE0F901F9018952FB799
:100A8000F8946091F3027091F4028091F5029091D4
:100A9000F6022FBF08958230910538F0880F991F14
:100AA000880F991F05970197F1F70895789484B5F9
:100AB000826084BD84B5816084BD85B5826085BD5A
:100AC00085B5816085BDEEE6F0E080818160808340
:100AD000E1E8F0E010828081826080838081816023
:100AE0008083E0E8F0E0808181608083E1EBF0E0EA
:100AF000808184608083E0EBF0E08081816080838E
:100B0000E1E9F0E080818260808380818160808380
:100B1000E0E9F0E0808181608083E1EAF0E08081BB
:100B200082608083808181608083E0EAF0E0808160
:100B300081608083E1E2F1E0808182608083808156
:100B400081608083E0E2F1E0808181608083EAE778
:100B5000F0E08081846080838081826080838081F6
:100B6000816080838081806880831092C1000895B5
:100B7000863308F0865320917B00982F9870277F4A
:100B8000922B90937B0087702091240290E4299F00
:100B900090011124822B80937C0080917A008064E4
:100BA00080937A0080917A0086FDFCCF8091780056
:100BB0002091790090E0922B089590E0FC0131970C
:100BC000E231F10508F04BC0EE58FF4F06C68091A8
:100BD00080008F7703C0809180008F7D809380009C
:100BE000089580918000877FF9CF84B58F7702C008
:100BF00084B58F7D84BD08958091B0008F7703C048
:100C00008091B0008F7D8093B00008958091900016
:100C10008F7707C0809190008F7D03C080919000F6
:100C2000877F8093900008958091A0008F7707C000
:100C30008091A0008F7D03C08091A000877F80936A
:100C4000A0000895809120018F7707C08091200136
:100C50008F7D03C080912001877F809320010895BC
:100C6000CF93DF9390E0FC01E25BFE4F2491FC0107
:100C7000EC56FE4F8491882349F190E0880F991F2C
:100C8000FC01EC50FE4FA591B49186529E4FFC01A1
:100C9000C591D4919FB7611108C0F8948C912095AB
:100CA00082238C93888182230AC0623051F4F894A5
:100CB0008C91322F309583238C938881822B88836B
:100CC00004C0F8948C91822B8C939FBFDF91CF91BD
:100CD00008950F931F93CF93DF931F92CDB7DEB785
:100CE000282F30E0F901E85FFE4F8491F901E25BC3
:100CF000FE4F1491F901EC56FE4F04910023C1F010
:100D0000882319F0698359DF6981E02FF0E0EE0F45
:100D1000FF1FE652FE4FA591B4919FB7F8948C91B6
:100D2000611103C01095812301C0812B8C939FBF5B
:100D30000F90DF91CF911F910F910895FC01818D4C
:100D4000228D90E0805C9F4F821B91098F739927C1
:100D50000895FC01918D828D981731F0828DE80FF6
:100D6000F11D858D90E008958FEF9FEF0895FC01B0
:100D7000918D828D981761F0828DDF01A80FB11DD2
:100D80005D968C91928D9F5F9F73928F90E00895F6
:100D90008FEF9FEF08958CE698E0892B39F080E083
:100DA00090E0892B19F098D1811125C080E090E066
:100DB000892B41F080E090E0892B21F00E94000017
:100DC00081111CC080E090E0892B41F080E090E030
:100DD000892B21F00E940000811113C080E090E077
:100DE000892BA1F080E090E0892B81F00E94000027
:100DF00081110AC008950E940000D8CF0E9400000F
:100E0000E1CF0E940000EACF0C9400000895FC019D
:100E1000848DDF01A80FB11DA35ABF4F2C91848D83
:100E200090E001968F739927848FA689B7892C93B8
:100E3000A089B1898C9180648C93938D848D981353
:100E400006C00288F389E02D80818F7D808308951C
:100E5000CF93DF93EC01888D8823C1F0EA89FB8969
:100E6000808185FD05C0A889B9898C9186FD0EC059
:100E70000FB607FCF5CF808185FFF2CFA889B9892D
:100E80008C9185FFEDCFCE01C2DFE8CFDF91CF910E
:100E90000895CF92DF92FF920F931F93CF93DF932A
:100EA0001F92CDB7DEB76C0181E0D60158968C93C6
:100EB00058975B969C915B975C968C915C97981386
:100EC00007C05096ED91FC915197808185FD2DC012
:100ED000F601038D10E00F5F1F4F0F731127F02EE7
:100EE000F601848DF81210C00FB607FCF9CFD601B9
:100EF0005096ED91FC915197808185FFF1CFC6010D
:100F0000698385DF6981ECCF838DE80FF11DE35A9A
:100F1000FF4F6083D6015B960C935B975296ED91E1
:100F2000FC915397808180620CC0D6015696ED915A
:100F3000FC91579760835096ED91FC915197808179
:100F40008064808381E090E00F90DF91CF911F91CA
:100F50000F91FF90DF90CF900895BF92CF92DF92D4
:100F6000EF92FF92CF93DF93EC016A017B01B22EE7
:100F7000E889F98982E08083411581EE580761058F
:100F8000710599F060E079E08DE390E0A7019601AA
:100F900002D4215031094109510956954795379599
:100FA0002795211580E1380790F0E889F9891082AA
:100FB00060E874E88EE190E0A7019601ECD321503F
:100FC0003109410951095695479537952795EC8583
:100FD000FD853083EE85FF852083188EEC89FD89A1
:100FE000B082EA89FB89808180618083EA89FB89FC
:100FF000808188608083EA89FB8980818068808322
:10100000EA89FB8980818F7D8083DF91CF91FF907A
:10101000EF90DF90CF90BF9008951F920F920FB680
:101020000F9211240BB60F922F938F939F93EF93F0
:10103000FF93E0910B03F0910C038081E091110389
:10104000F091120382FD12C09081809114038F5F92
:101050008F7320911503821751F0E0911403F0E093
:10106000E550FD4F958F8093140301C08081FF915F
:10107000EF919F918F912F910F900BBE0F900FBE0C
:101080000F901F9018951F920F920FB60F92112478
:101090000BB60F922F933F934F935F936F937F9372
:1010A0008F939F93AF93BF93EF93FF938BEF92E058
:1010B000AEDEFF91EF91BF91AF919F918F917F91A4
:1010C0006F915F914F913F912F910F900BBE0F90B9
:1010D0000FBE0F901F9018958BEF92E02FDE21E04E
:1010E000892B09F420E0822F08951092FE021092BD
:1010F000FD0288EE93E0A0E0B0E08093FF029093C1
:101100000003A0930103B093020389E292E090935D
:10111000FC028093FB0285EC90E09093080380939F
:10112000070384EC90E090930A038093090380EC1A
:1011300090E090930C0380930B0381EC90E09093EC
:101140000E0380930D0382EC90E090931003809344
:101150000F0386EC90E0909312038093110310929A
:10116000140310921503109216031092170308959A
:10117000CF92DF92EF92FF920F931F93CF93DF9363
:101180007C016A01EB0100E010E00C151D0571F017
:101190006991D701ED91FC910190F081E02DC7019B
:1011A0001995892B19F00F5F1F4FEFCFC801DF9101
:1011B000CF911F910F91FF90EF90DF90CF90089506
:1011C0006115710581F0DB010D900020E9F7AD019B
:1011D00041505109461B570BDC01ED91FC910280F7
:1011E000F381E02D199480E090E00895DC01ED9109
:1011F000FC910190F081E02D199465E372E0E0CF5D
:101200008F929F92AF92BF92CF92DF92EF92FF9216
:101210000F931F93CF93DF93CDB7DEB7A1970FB690
:10122000F894DEBF0FBECDBF7C01C42EE52FCB01ED
:10123000D22E19A221E02D1510F02AE0D22E8E0117
:101240000F5D1F4F8D2C912CA12CB12C6C2D7E2F5E
:10125000A5019401A0D28C2DD29E80191124015099
:1012600011098A3014F4805D01C0895CF801808323
:10127000211531054105510521F0C22EE32FCA0188
:10128000E5CFB801C7019CDFA1960FB6F894DEBF89
:101290000FBECDBFDF91CF911F910F91FF90EF90C7
:1012A000DF90CF90BF90AF909F908F900895CF9296
:1012B000DF92EF92FF920F931F93CF93DF93EC0196
:1012C0006A017B012115310579F4E881F9810190EA
:1012D000F081E02D642FDF91CF911F910F91FF904E
:1012E000EF90DF90CF9019942A303105D9F477FF31
:1012F00018C06DE27BDF8C0144275527BA014C19D9
:101300005D096E097F092AE0CE017ADF800F911F07
:10131000DF91CF911F910F91FF90EF90DF90CF90D1
:1013200008952AE0B701A601CE01DF91CF911F9168
:101330000F91FF90EF90DF90CF9062CF0F931F93AC
:10134000CF93DF93EC019A01AB01662757FD6095BF
:10135000762FADDF8C01CE0150DF800F911FDF9122
:10136000CF911F910F9108950F931F93CF93DF9308
:10137000EC0185DB688779878A879B87E881F9811B
:101380000680F781E02DCE01199597FF14C077DB19
:10139000088519852A853B85601B710B820B930B91
:1013A0000C811D812E813F81601771078207930791
:1013B00028F38FEF9FEFDF91CF911F910F91089549
:1013C000FC0144835583668377830895CF92DF922F
:1013D000EF92FF920F931F93CF93DF937C016A01EB
:1013E000EB0100E010E00C151D0541F0C701BCDF6A
:1013F00097FD04C089930F5F1F4FF5CFC801DF91A0
:10140000CF911F910F91FF90EF90DF90CF900895B3
:1014100008954CDBFDDF8BD9CBECD6E0B1DA209719
:10142000E9F3B9DCFBCF5058BB27AA270ED0E0C0A8
:10143000D1D030F0D6D020F031F49F3F11F41EF41B
:10144000C6C00EF4E095E7FBBCC0E92FE2D080F304
:10145000BA17620773078407950718F071F49EF5B1
:10146000FAC00EF4E0950B2EBA2FA02D0B01B90196
:1014700090010C01CA01A0011124FF27591B99F00A
:10148000593F50F4503E68F11A16F040A22F232F16
:10149000342F4427585FF3CF469537952795A79566
:1014A000F0405395C9F77EF41F16BA0B620B730B0D
:1014B000840BBAF09150A1F0FF0FBB1F661F771F7E
:1014C000881FC2F70EC0BA0F621F731F841F48F433
:1014D000879577956795B795F7959E3F08F0B3CFB9
:1014E0009395880F08F09927EE0F979587950895A3
:1014F00098D088F09F5790F0B92F9927B751A0F056
:10150000D1F0660F771F881F991F1AF0BA95C9F797
:1015100012C0B13081F09FD0B1E008959CC0672F18
:10152000782F8827B85F39F0B93FCCF38695779547
:101530006795B395D9F73EF4909580957095619530
:101540007F4F8F4F9F4F0895E89409C097FB3EF45B
:1015500090958095709561957F4F8F4F9F4F992300
:10156000A9F0F92F96E9BB279395F695879577957E
:101570006795B795F111F8CFFAF4BB0F11F460FF3E
:101580001BC06F5F7F4F8F4F9F4F16C0882311F096
:1015900096E911C0772321F09EE8872F762F05C0AA
:1015A000662371F096E8862F70E060E02AF09A9545
:1015B000660F771F881FDAF7880F9695879597F93A
:1015C000089597F99F6780E870E060E008959FEFC5
:1015D00080EC089500240A941616170618060906CA
:1015E000089500240A941216130614060506089599
:1015F000092E0394000C11F4882352F0BB0F40F421
:10160000BF2B11F460FF04C06F5F7F4F8F4F9F4F60
:10161000089557FD9058440F551F59F05F3F71F0E2
:101620004795880F97FB991F61F09F3F79F0879549
:101630000895121613061406551FF2CF4695F1DFD2
:1016400008C0161617061806991FF1CF8695710562
:10165000610508940895E894BB2766277727CB0196
:1016600097F908950BD0C4CFB5DF28F0BADF18F092
:10167000952309F0A6CFABCF1124EECFCADFA0F39C
:10168000959FD1F3950F50E0551F629FF001729F17
:10169000BB27F00DB11D639FAA27F00DB11DAA1F36
:1016A000649F6627B00DA11D661F829F2227B00D83
:1016B000A11D621F739FB00DA11D621F839FA00D0E
:1016C000611D221F749F3327A00D611D231F849F5E
:1016D000600D211D822F762F6A2F11249F575040B5
:1016E0008AF0E1F088234AF0EE0FFF1FBB1F661F50
:1016F000771F881F91505040A9F79E3F510570F009
:1017000060CFAACF5F3FECF3983EDCF386957795E8
:101710006795B795F795E7959F5FC1F7FE2B880F03
:10172000911D9695879597F90895DB018F939F9367
:101730005AD0BF91AF91A29F800D911DA39F900D94
:10174000B29F900D11240895AA1BBB1B51E107C045
:10175000AA1FBB1FA617B70710F0A61BB70B881F41
:10176000991F5A95A9F780959095BC01CD010895D0
:1017700097FB072E16F4009406D077FD08D0E4DF1F
:1017800007FC05D03EF4909581959F4F0895709584
:1017900061957F4F0895A1E21A2EAA1BBB1BFD0184
:1017A0000DC0AA1FBB1FEE1FFF1FA217B307E40740
:1017B000F50720F0A21BB30BE40BF50B661F771F98
:1017C000881F991F1A9469F7609570958095909578
:1017D0009B01AC01BD01CF010895EE0FFF1F0590E5
:1017E000F491E02D19940DD0A59F900DB49F900D0C
:1017F000A49F800D911D112408950790F691E02D6E
:101800001994A29FB001B39FC001A39F700D811DC9
:101810001124911DB29F700D811D1124911D0895F9
:04182000F894FFCF6A
:10182400000098038000C800250024002300220043
:10183400210020001F001E001A001B001C001D00B8
:101844003500310001000000004907B8089E06B7C2
:1018540006A90628070D0A006E616E00696E66000F
:061864006F7666002E0005
:00000001FF
